:020000040800F2
:10000000607B0020C101000833320008B72A0008D5
:1000100031320008A10A00086D4D00080000000000
:100020000000000000000000000000000135000892
:10003000490B000800000000BF330008033500082A
:10004000DB010008DB010008DB010008DB01000820
:10005000DB010008DB0100084B0B0008DB01000896
:10006000DB010008DB010008DB010008DB01000800
:10007000DB010008DB010008DB010008DB010008F0
:10008000DB010008DB010008DB010008DB010008E0
:10009000DB010008DB010008DB010008DB010008D0
:1000A000DB010008C1350008DB010008DB010008A6
:1000B000DB010008DB010008DB010008DB010008B0
:1000C000DB010008DB010008DB010008DB010008A0
:1000D000DB010008DB010008DB010008DB01000890
:1000E000DB010008DB010008DB010008DB01000880
:1000F000DB010008DB010008DB010008DB01000870
:10010000DB010008DB010008DB010008DB0100085F
:10011000DB010008DB010008DB010008DB0100084F
:10012000DB010008DB010008DB010008DB0100083F
:10013000DB010008DB010008DB010008DB0100082F
:10014000DB010008DB010008DB010008DB0100081F
:10015000DB010008DB010008DB010008DB0100080F
:10016000DB010008DB010008DB010008DB010008FF
:10017000DB01000835320008DB0100080000000048
:10018000DB010008DB010008DB010008DB010008DF
:10019000DB010008DB010008DB010008DB010008CF
:1001A000DB010008DB010008DB010008DFF80CD0F0
:1001B00000F054FB00480047995E0008607B002077
:1001C0000648804706480047FEE7FEE7FEE7FEE7F1
:1001D000FEE7FEE7FEE7FEE7FEE7FEE7A5350008DF
:1001E000AD0100082DE9F05F0546002092469B46D0
:1001F00088460646814640241BE02846414647463D
:10020000224600F045FA53465A46C01A914110D38F
:1002100011461846224600F02CFA2D1A67EB010809
:100220004F4622460120002100F023FA17EB000977
:100230004E41201EA4F10104DFDC484631462A4627
:100240004346BDE8F09F40EA01039B0703D009E065
:1002500008C9121F08C0042AFAD203E011F8013BB2
:1002600000F8013B521EF9D27047D2B201E000F80B
:10027000012B491EFBD270470022F6E710B513464A
:100280000A4604461946FFF7F0FF204610BD421CFF
:1002900010F8011B0029FBD1801A70472DE9FE4F91
:1002A000804681EA0300C00F0C46009021F0004117
:1002B00023F00045B8EB0200A94105D24046214693
:1002C00090461C460B46024623F00040104347D0A0
:1002D000270DC7F30A00C3F30A510290401A019098
:1002E00040286BDAC3F3130040F4801B0098924659
:1002F00020B10023D2EB030A63EB0B0B01985946A4
:10030000C0F14002504600F0B4F906460D46504692
:100310005946019A00F0CCF910EB08006141002425
:1003200087EA115284EAE7731A4340D0009A62B315
:10033000019A012A4FEA075215DC001B61EB02010A
:100340004FF0004202EA0752CDE90042001C41F59D
:10035000801132462B4600F003FA03B0BDE8F08F5F
:1003600040462146F9E7001B61EB0201001C41F504
:10037000801300185B412018A2F5001747EB03011A
:1003800040EAD570B6196D4111E06D084FEA3606A6
:1003900045EAC0754FEA0752001B61EB0201001CE1
:1003A00041F5801149084FEA3000001951413246A9
:1003B0002B4603B0BDE8F04F00F0C3B9009801220E
:1003C00040000023D0EB020263EBE073009821466B
:1003D0004FEAE074B8EB000061EB0401E9E783F059
:1003E00000435BE781F0004158E72DE9FE4F81EAC9
:1003F000030404F0004421F0004100944FF0000B8E
:1004000023F0004350EA01045ED052EA03045BD0BB
:10041000C3F30A54C1F30A552C44A4F2F3340194F3
:10042000A0FB0254C1F3130141F48011C3F3130381
:1004300043F4801301FB024400FB034E840A970A35
:1004400044EA815447EA8357A4FB076802958D0A62
:1004500005FB07854FEA932C04FB0C542705029DEE
:100460004FEA065847EA1637B5EB08056EEB070C5E
:10047000870E920E47EA811742EA8312A7FB020118
:10048000B6EB0B0164EB00042B0D43EA0C335E1852
:1004900044EB1C50DA465146E7FB0201C5F3130456
:1004A0004FEA0B3343EA14534FEA0432019C43EA08
:1004B0000603A4F10C040294009CCDE900B400F002
:1004C0004FF903B0BDE8F08F00200146F9E72DE9B0
:1004D000F04D81EA030404F0004B21F0004514467E
:1004E0004FF0000A23F0004150EA050220D054EA00
:1004F00001021DD0C5F30A570246C5F31303C1F329
:100500001300C1F30A5640F4801543F48013A7EB9F
:100510000608101BD64608F2FD3873EB050002D31F
:1005200008F1010801E092185B41B8F1000F03DA0D
:1005300000200146BDE8F08D00204FF480110646F2
:1005400084460EE0171B73EB050705D3121B63EB04
:10055000050306434CEA010C49084FEA30009218A3
:100560005B4150EA0107EDD152EA030012D082EA62
:10057000040083EA0501084305D0101BAB4106D2F5
:100580000122002306E000224FF0004302E06FF05A
:10059000010253101AEB06004CEB085110EB0A0055
:1005A00041EB0B01BDE8F04D00F0CBB80EB5C10F2B
:1005B00080EAE0700844CA07002140F233438DE826
:1005C0000E000A460B4600F0CBF803B000BD0EB596
:1005D00040F2334102910021CDE900110A460B4659
:1005E00000F0BEF803B000BD00F0004230F0004063
:1005F0000AD0C10D01F56071C0F3160042EA015145
:10060000C20840071143704700200146704701F0BF
:10061000004330B421F0004150EA010206D00A0D37
:10062000A2F56072C1F31301002A02DC30BC002085
:100630007047440F44EAC104C100E01830BC00EB2D
:10064000C25000F047B830B50B46014600202022CA
:10065000012409E021FA02F59D4205D303FA02F5CF
:10066000491B04FA02F52844151EA2F10102F1DC2F
:1006700030BD202A04DB203A00FA02F10020704746
:100680009140C2F1200320FA03F3194390407047D0
:10069000202A04DB203A21FA02F00021704721FAD7
:1006A00002F3D040C2F1200291400843194670473E
:1006B000202A06DBCB17203A41FA02F043EAE07326
:1006C00006E041FA02F3D040C2F120029140084313
:1006D000194670470029A8BF7047401C490008BF51
:1006E00020F00100704710B4B0FA80FC00FA0CF062
:1006F00050EA010404BF10BC704749B1CCF120049A
:1007000021FA04F411FA0CF118BF01212143084326
:10071000A3EB0C01CB1D4FEA00614FEA102042BF52
:10072000002010BC704700EBC35010440029A4BF48
:1007300010BC7047401C490008BF20F0010010BCED
:10074000704710B5141E73F1000408DA401C41F123
:10075000000192185B411A4301D120F0010010BD45
:100760002DE9F04D92469B4611B1B1FA81F202E0BB
:10077000B0FA80F220329046FFF77BFF04460F4626
:1007800040EA0A0041EA0B0153465A46084313D097
:10079000114653EA010019D0C8F140025046FFF754
:1007A00077FF05460E46504659464246FFF761FF21
:1007B000084305D0012004E020463946BDE8F08D0D
:1007C0000020054346EAE0762C4337430A98630548
:1007D000E40AA0EB08000022FD0A44EA47540A306C
:1007E00002D500200146E9E7010510196941DDE95C
:1007F000084500196941BDE8F04DA2E770B521F048
:10080000004303430CD0C1F30A550024D5EB040583
:1008100064EB0403D617AD1AB34102DB0020014696
:1008200070BD201841EB025170BD000030B5041EB0
:1008300071F1000404DB4FF00044404264EB01011D
:10084000141E73F1000405DB1C464FF000435242B6
:1008500063EB0403994208BF904230BD064C074D3C
:1008600006E0E06840F0010394E807009847103480
:10087000AC42F6D3FFF79EFC1875000838750008E7
:100880002DE9F04D00231A461B1A8A4103DB002094
:100890000146BDE8F08DC1F30A52C1F3130141F4E2
:1008A00080154FF0000BD10702D100186D41521E88
:1008B0000027044640F2FF11384601EB620A3E462B
:1008C0008046024600204FF48011FFF7E1FEC21976
:1008D0007141BB1846EB0100B4EB030C75EB000C47
:1008E00004D3E41A65EB000517460E46241908F1F7
:1008F00001006D4180463428E3DDF91946EB06001E
:10090000091BA84103D24FF0FF32134601E0002239
:1009100013461BEB070046EB0A51BDE8F04DFFF70D
:1009200010BF70B58C1810F8015B15F0070301D1EA
:1009300010F8013B2A1106D110F8012B03E010F842
:10094000016B01F8016B5B1EF9D12B0705D4002365
:10095000521E0DD401F8013BFAE710F8013BCB1A07
:10096000921C03E013F8015B01F8015B521EF9D5FC
:10097000A142D8D3002070BD464910B54A6822F480
:1009800040324A604A6843681A434A6001684A68CC
:1009900022F480724A6001684A68036942EA0322CD
:1009A0004A6001684A6822F040724A6001684A68F9
:1009B00083681A434A6001688A6822F400628A6088
:1009C00001688A68C3681A438A60816A6FF070623E
:1009D000D14201688A6822F070628A6001688A6880
:1009E0000CD0836A1A438A6001688A6822F04052F8
:1009F0008A6001688A68C36A1A4301E022F04052A3
:100A00008A6001688A6822F002028A6001688A6846
:100A1000037E42EA43028A6090F8201000290168B0
:100A20004A680FD042F400624A6001684A6822F4C2
:100A300060424A6001684A68174C436A04EB4333DA
:100A40001A4301E022F400624A600168CA6A22F493
:100A50007002CA620168CA6A838B104C04EB0353AC
:100A60001A43CA6201688A6822F400728A600168C7
:100A70008A6890F8303042EA43228A6001688A68C6
:100A800022F480628A6001688A68406942EA8020B4
:100A9000886010BD0023014000E0FFFF0000F0FF70
:100AA000FEE70020704700207047000010B50022CC
:100AB0000449054802F0E2FE0449034802F0D8FE6A
:100AC000002010BD201300207C020020200B0020FD
:100AD0000EB54FF6FF724FF47841CDE9011205498A
:100AE0004A68009202460B68B421462002F016FACA
:100AF0000EBD00000000002070B50D460446014602
:100B0000054802F0B5FE044802F096FE204629682A
:100B1000FFF7DEFF002070BD7C020020094A10B5FF
:100B2000D2F89022D2F814220AB1012010BD0A4650
:100B30000146044802F0A2FEBDE81040014802F060
:100B4000FBBE00007C0200207047012000F010BABC
:100B50007047000078B50024009490F83C20012AEA
:100B600019D0012280F83C200A6807230568092A69
:100B700013D9EE680A3A02EB420293409E43EE60BC
:100B80000B788A680A3B03EB43039A400368DD68ED
:100B90002A43DA6010E0022078BD2E6902EB42029F
:100BA00093409E432E610B788A6803EB43039A407F
:100BB00003681D692A431A614A681F23072A13D252
:100BC00005686E6B521E02EB820293409E436E6379
:100BD0000A8893B20A79521E02EB8202934002689D
:100BE000556B2B43536327E005680D2A12D22E6BF9
:100BF000D21F02EB820293409E432E630B790A8838
:100C0000DB1F92B203EB83039A4003681D6B2A43F8
:100C10001A6311E0EE6A0D3A02EB820293409E43A2
:100C2000EE620B790A880D3B92B203EB83039A4084
:100C30000368DD6A2A43DA621B4B0568194A9D4244
:100C40000AD10D68122D07D1556825F400055560AD
:100C5000556845F48005556005689D421DD1134DCA
:100C60000B68AB4201D0112B17D1536823F48003DA
:100C70005360536843F4000353600968A9420CD1E0
:100C80000B490C4A0968B1FBF2F101EB8101490003
:100C900000E0491E00910029FBD180F83C40002073
:100CA00078BD000000230140002001401200001028
:100CB0008400002040420F000068C06C704770B58F
:100CC00004004FF0000503D0206C002610B107E0AF
:100CD000012070BD204600F01DF8666484F83C6079
:100CE000206CC00610D4206C20F4885040F0020024
:100CF00020642046FFF740FE6664206C20F002006E
:100D000040F00100206400E0012584F83C602846A2
:100D100070BD000008B500680649884208D1064841
:100D2000016841F480710160006800F480700090F7
:100D300008BD000000200140443802402DE9F04188
:100D4000044600680D4681684FF0000749050BD541
:100D50008068C00508D5206C40F02000206484F82D
:100D60003C700120BDE8F08100F0FEF906460FE07E
:100D7000681C0DD025B100F0F7F9801BA84207D9F7
:100D8000206C40F00400206484F83C700320E9E704
:100D9000206800688007EBD521686FF012000860BA
:100DA000206C40F4007020642068816811F0405F7E
:100DB00013D1217E89B9C16A11F4700F02D0806805
:100DC00040050AD4206C20F480702064206CC0049C
:100DD00003D4206C40F0010020640020C2E7000032
:100DE00018B50021009190F83C20012A07D001227B
:100DF00080F83C2002689368DB0702D011E00220F3
:100E000018BD936843F0010393602A4A2A4B126885
:100E1000B2FBF3F202EB420200E0521E0092002A03
:100E2000FBD102689368DB0741D0036C40F2016498
:100E3000A34343F48073036453685B0505D5036CD7
:100E400023F4005343F480530364036CDB0404D5A0
:100E5000436C23F00603436400E0416480F83C10D7
:100E600016496FF02203136049680068CA061449E6
:100E700006D088421BD1816811F0405F13D016E084
:100E80008842F8D00F4A904203D1D1F80423D20609
:100E9000F1D00D4A90420AD1D1F8041301F01F019C
:100EA0001029E8D303E0816841F08041816000208F
:100EB00018BD00008400002040420F0000230140C4
:100EC00000200140002101400022014090F83C1028
:100ED00001290CD0012180F83C1001688A6822F0B9
:100EE00001028A6001688968C90702D007E0022010
:100EF0007047016C21F4885141F001010164002127
:100F000080F83C100846704770B5044600F02CF994
:100F10000546601C02D004480078044400F024F91F
:100F2000401BA042FAD370BD780000200EB5012806
:100F300001D000BF0EBD094901200AA208704FF67A
:100F4000FF714FF47840CDE90101054841680091F7
:100F50000368DC21462001F0E1FF0EBD08000020FF
:100F60000000002042544E20507265737365640087
:100F7000044910B50A68024202D00860FFF7D6FFA4
:100F800010BD0000143C01402DE9F84F00224FF045
:100F9000010803254FF00F0E0B6808FA02F42340F6
:100FA000A3426ED14E68012E05D0022E03D0112E21
:100FB00001D0122E12D186684FEA420C05FA0CF7C6
:100FC000BE43CF6807FA0CF7374387604668A643ED
:100FD0000C79C4F30014944034434460C66857004D
:100FE00005FA07FC8C6826EA0C06BC403443C46052
:100FF0004C68022C01D0122C13D1D40800EB8404CD
:10100000A346D4F8209054074FEAD46A0EFA0AF6A1
:1010100029EA06090E6906FA0AF646EA0906CBF835
:10102000206004680E7924EA0C0406F00306BE4032
:10103000264306604C68E4006FD53B4C266846F4B6
:1010400080462660246822F0030604F4804400945D
:10105000364C3444A446D4F808489607360F0EFAA6
:1010600006F7BC43324FB84201D100272EE0314F82
:10107000B84201D1012729E02F4FB84202D10227FF
:1010800024E04AE02D4FB84201D103271EE02C4F47
:10109000B84201D1042719E02A4FB84201D10527EF
:1010A00014E0294FB84201D106270FE0274FB8427C
:1010B00001D107270AE0264FB84201D1082705E0F1
:1010C000244FB84201D1092700E00A27B74027433F
:1010D000CCF80878204E34684F689C43FF0300D555
:1010E0001C4334601C4E361D34684F689C43BF035C
:1010F00000D51C433460184E083634684F689C4352
:10110000FF0200D51C433460134E0C3634684F6820
:101110009C43BF0200D51C433460521C102AFFF4CC
:101120003BAFBDE8F88F000044380240003001407A
:10113000000002400004024000080240000C02408F
:10114000001002400014024000180240001C02403F
:101150000020024000240240003C01400AB18161AD
:1011600070470904FBE700000148806870470000F1
:10117000780000200248816802781144816070473D
:10118000780000200B4810B5016841F4007101603F
:10119000016841F480610160016841F4807101607F
:1011A000032000F089F8002000F006F800F03EF877
:1011B000002010BD003C024010B5014688B000225E
:1011C000192000F059F8192000F048F813480024BD
:1011D000016841F001010160006805A900F001000B
:1011E0000690684600F0E6FE00F00AFF0C49400059
:1011F000B0FBF1F10C480B4A491E026040F2E732A5
:10120000C0E90324C0E9011401F066FB10B101201C
:1012100008B010BD044801F07BFBF9E744380240F8
:1012200040420F0000000140201B00200A4808B582
:10123000016841F480410160006800F48040009042
:101240000548001F016841F080510160006800F00E
:101250008050009008BD000044380240002809DB9F
:1012600000F01F02012191404009800000F1E020C0
:10127000C0F8001170470000F0B40E4B1B680C461C
:10128000C3F30223C3F10705042D00D90425191D5A
:10129000072901D2002300E0DB1E012606FA05F132
:1012A000491E214099409E40761E16403143F0BCB5
:1012B00003F08ABD0CED00E0064900F00702086863
:1012C0004FF6FF03184040EA0220034A104308602B
:1012D000704700000CED00E00000FA057047006860
:1012E000416200207047F0B50368586A39B19C6AC2
:1012F0004FF4827600EB144400204D1E0AE040EAD1
:10130000024098620FE006EB8007DF59401C04EBB7
:101310001744C0B2A842F6D344EA02404FF48072A8
:1013200002EB810158500020F0BDD0F8040402F017
:1013300056BDC1EBC10200EB8202D0F80404926CEE
:1013400002F0A9BCC1EBC10200EB8202D0F8040498
:10135000D2F8082202F002BDD0F8040402F041BD28
:1013600070B504460B0601F00F00C0EBC00104EBA2
:1013700081014FF001024FF0000503D581F83D20B7
:101380003C3103E081F8FD5101F5FE71087094F8DD
:10139000BC03012808D084F8BC23206803F09CF823
:1013A00084F8BC53002070BD022070BD70B50446A7
:1013B00001F00F006268904201D9012070BD0B0658
:1013C00001F00F01C1EBC10104EB81014FF00102FB
:1013D0004FF0000503D581F83D203C3103E081F852
:1013E000FD5101F5FE718D70087094F8BC03012861
:1013F00008D084F8BC23206803F04AFA84F8BC5370
:10140000002070BD022070BD01F00F01C1EBC101D1
:1014100000EB8100D0F8140270472DE9F04104463A
:101420000F0601F00F00C0EBC00104EB81014FF08B
:1014300001064FF0000503D581F83D603C3103E023
:1014400081F8FD5101F5FE7108708A60CB704A7811
:1014500002B1C880022B00D10D7194F8BC030128A1
:1014600009D084F8BC63206802F086FF284684F81F
:10147000BC53BDE8F0810220FBE770B50C4601F0DB
:101480000F05C5EBC50100EB8101C1F81032C1F8B1
:1014900008220023C1F8143281F8FD3181F8FC5193
:1014A000036901F5FE71012B00D10A612207027C5C
:1014B000006803D003F044FA002070BD03F030F957
:1014C000FAE770B504460D4601F00F0061688842E6
:1014D00001D9012070BD29064FF000064FF001022E
:1014E00007D5C0EBC00104EB810181F83D203C3100
:1014F00007E0C5EBC50104EB810181F8FD6101F551
:10150000FE718A70087094F8BC03012807D084F833
:10151000BC23206803F0E8F9280702D007E0022086
:1015200070BD217C04F57172206803F085F984F8A0
:10153000BC63002070BD70B50C4601F00F05C5EB13
:10154000C50100EB81010B658A6400234B65012313
:1015500081F83D3001F83C5F0369012B00D10A613D
:101560002207027C006803D003F0EAF9002070BD76
:1015700003F0D6F8FAE700002DE9FC5F05680446A1
:10158000284603F006FB00287ED1206803F02DFBDF
:10159000002879D0206803F028FB800704D5206854
:1015A000416901F002014161206803F01EFB010363
:1015B00004F571704FF0010A4FF0080B009075D5DB
:1015C0000026206803F0F0FA0746DFF808946BE085
:1015D000F80767D0F1B2206803F0FFFA8046C00731
:1015E00007D005EB4611C1F808AB3146204601F0A3
:1015F00027FE5FEA087032D52068016C00EB4610C8
:101600000191D0F8081B2269012A019A0FD0F24BF0
:101610009A4214D1090403D54FF40041C0F8081BC5
:10162000204600F0C3FA206901280FD013E04A4594
:1016300005D9090403D54FF40041C0F8081B204622
:1016400000F0B4FA01984845EDD804E02068012183
:10165000009A03F0F1F805EB4611C1F808BB5FEA08
:10166000C86004D505EB46111020C1F8080B5FEAED
:1016700088600ED52069012804D120680121009AD4
:1016800003F0DAF8202100E0A1E105EB4610C0F8F4
:10169000081B5FEA884005D505EB46104FF4005162
:1016A000C0F8081B7F08761C002F91D1206803F03A
:1016B0009CFA40034FF000095FD5206803F06DFAF3
:1016C0000746002657E0F80753D0F1B2206803F030
:1016D00072FA8046C00726D006F00F020AFA02F01E
:1016E000D5F834288243C5F8342805EB4610C0F8F5
:1016F00008A92069012807D1C6EBC60004EB8000C9
:10170000D0E9112111448164F1B22046FFF711FEA6
:101710002069012807D136B9206D20B92068012140
:10172000009A03F089F85FEA087003D505EB4611CB
:10173000C1F808B95FEAC86004D505EB461110206E
:10174000C1F808095FEA486004D505EB461040215E
:10175000C0F808195FEA887004D505EB461002212D
:10176000C0F808195FEA086003D53146204601F049
:10177000D5FD7F08761C002FA5D1206803F035FA2F
:10178000002811DAD5F8040820F00100C5F8040893
:1017900094F8F40301282BD0204600F0EBF92068E0
:1017A000416901F000414161206803F01EFA000523
:1017B0000BD5D5F80808C00702D0204600F01EFA65
:1017C0002068416901F400614161206803F00DFA6D
:1017D000C00461D5D5F8040820F00101C5F804184B
:1017E0001021206803F0B6F900214FF67F321AE08D
:1017F00084F8F49300212046FFF770FDCFE700BF87
:1018000005EB4110C0F80829D0F8003923F4001383
:10181000C0F80039C0F8082BD0F8003B23F40013BF
:10182000C0F8003B491C60688842E9D8D5F81C081C
:1018300040F00111C5F81C18206B002828460DD077
:10184000D0F8840840F00B00C5F88408D5F84408A7
:1018500040F00B012846C5F844180DE0D0F81408F4
:1018600042F22B010843C5F81408D5F8100840F0DF
:101870000B012846C5F81018D0F8000820F4FE61C6
:10188000C5F80018217C2068009A02F0D5FF206876
:10189000416901F480514161206803F0A6F9800498
:1018A00015D5206802F0A8FD206803F065F9E06016
:1018B00000F0A0FB0146227B206803F0D1F920460E
:1018C00000F042F92068416901F40051416120684B
:1018D00003F08BF9C00634D52068816921F010012E
:1018E00081612F6A07F00F00C0EBC00004EB800697
:1018F000C7F3434006F5FE76022802D0062811D031
:101900001AE047F6F070074216D0C7F30A121746DE
:101910002846F16803F06DF9F0683844F060B0696A
:10192000384408E008222846009903F062F9B069BB
:10193000C7F30A110844B0612168886940F01000BB
:101940008861206803F051F9000707D5204600F0B0
:1019500015F92168486900F008004861206803F023
:1019600044F9C00208D50021204600F037F821686C
:10197000486900F480104861206803F036F980025D
:1019800008D50021204600F02DF82168486900F4B0
:1019900000104861206803F028F9400007D5204670
:1019A000FFF7C3FC2068416901F080414161206874
:1019B00003F01BF940070AD520684568680702D57F
:1019C0002046FFF7C9FC2068416829434160BDE813
:1019D000FC9F00000A30544F0A31544FD0F80404E1
:1019E00002F052BAD0F8040402F050BA2DE9F041E6
:1019F0008AB0040005D094F8BD032668002520B104
:101A000008E001200AB0BDE8F08184F8BC5320460C
:101A100000F05EF8032084F8BD03F06BC00500D42D
:101A20002561206802F076FE04F110012822884624
:101A30006846FEF708FC94E80F0002F0F7FC022667
:101A4000C8BB0021206803F0E2F8002001270EE067
:101A5000C0EBC00104EB810181F83D7001F83C0F3F
:101A6000C880CD708D60CD60401CC0B24D61616892
:101A70008142EDD8002011E0C0EBC00104EB8101F0
:101A800081F8FD5181F8FC0181F8FF51C1F8045241
:101A9000C1F80852401CC0B2C1F8105261688142BE
:101AA000EAD8282241466846FEF7CDFB94E80F00AD
:101AB00002F06AFD10B184F8BD63A2E784F83850E3
:101AC00084F8BD73206802F053FD00209AE70000FF
:101AD00010B586B0044614216846FEF7CDFB1749C1
:101AE0002068884227D1164C0020216841F002016D
:101AF0002160216801F0020105914FF440410091FD
:101B00000221CDE90110032003900C2004906946C6
:101B10000C48FFF739FA206840F000502060206838
:101B2000002200F00050059011464D20FFF7A4FB65
:101B30004D20FFF793FB06B010BD000000000440ED
:101B4000303802400004024070B50446C0680125E8
:101B500070B1022801D0FEF7FBFF2946D4F8040437
:101B600002F0E5F9D4F80404BDE8704002F0A5B92C
:101B70000025F2E7D0F8040402F0C7B9D0F8040455
:101B800002F0C9B910B5044690F8BC0301280BD087
:101B9000012084F8BC0384F83810206803F04EF864
:101BA000002084F8BC0310BD022010BDD0F804242E
:101BB00000F57171104602F0C6B910B50446006810
:101BC00094F8BC13012906D0012184F8BC13A16A42
:101BD000012902D008E0022010BDA169012903D02B
:101BE000816B41F480318163206802F0B5FC20688C
:101BF00002F09AFF002084F8BC0310BD10B5044623
:101C0000D0F8040402F0DEF92068D0F8001E41F09C
:101C10000101C0F8001E206A002804D002480168B3
:101C200041F00601016010BD10ED00E02DE9F84F14
:101C300004460068DFF824A2894F8A4DC1074FF09F
:101C400001084FF0000603D1810701D4400648D5B2
:101C5000CAF86860FFF788FA814605E0FFF784FA62
:101C6000A0EB090002287DD828680001F6D420786E
:101C7000C1077D4805D06168227A890141EA027175
:101C800001602178890711D501686268237B920180
:101C9000C1F3027142EA036242EA017101603968EC
:101CA000E26921F01F01521E114339602178490673
:101CB00008D56168227B890141EA0261227A41EA02
:101CC00002710160CAF86880FFF74EFA814605E0AC
:101CD000FFF74AFAA0EB0900022843D82868000160
:101CE000F6D52068410701D400074ED5CAF87060C8
:101CF000FFF73AFA814605E0FFF736FAA0EB090054
:101D000002282FD82868C0438000F5D520784107E5
:101D1000564814D501682269237D9201C1F30271EE
:101D200042EA036242EA017101603968226A6FF097
:101D3000FF0321F4F85103EB0222114339602178AB
:101D4000090712D501682269C1F30361920142EAD1
:101D50000161227E41EA027101603868616A20F403
:101D6000403000E051E008433860CAF87080FFF767
:101D7000FBF9074605E000BFFFF7F6F9C01B022894
:101D800043D82868C0438000F6D42078800653D515
:101D900034484030016841F0805101600068344DA2
:101DA00000F080500090286840F480702860FFF7B1
:101DB000DBF9074605E000BFFFF7D6F9C01B022894
:101DC00023D82868C005F7D5274D143D286810F49E
:101DD000407020D0218D01F4407181421BD02868D1
:101DE00020F440712348C0F800800660296028680C
:101DF000C00710D0FFF7B8F9064641F2883707E070
:101E0000FFF7B2F9801BB84202D90320BDE8F88F72
:101E100028688007F4D5A16A1248C1F3012208306E
:101E2000032A13D0016821F4F81101602868218D7C
:101E3000C1F30B01084328602078C00604D50E4981
:101E400094F82C00C1F8E0010020DFE702680B4B9A
:101E500022F4F81219400A430260E7E70000474203
:101E60008C380240003802408438024088380240F2
:101E700000700040400E474200104742FFFCFF0F39
:101E80002DE9F0470E46050065D0DFF81481D8F83B
:101E90000000F7B200F00F00B04207D288F80070DF
:101EA000D8F8000000F00F00B04254D128683D4C33
:101EB000810712D5400703D5206840F4E050206028
:101EC0002878000703D5206840F46040206020682F
:101ED000A96820F0F000084320602878C0072DD0C2
:101EE000304968680839012812D0022813D0032825
:101EF00011D00968890700292DDA216821F0030132
:101F000001432160FFF730F9814641F2883A0EE043
:101F100009688903EFE709688901ECE7FFF724F90D
:101F2000A0EB0901514502D90320BDE8F0872068E4
:101F3000696800F00C00B0EB810FEFD1D8F8001009
:101F4000404601F00F01B14207D90770006800F068
:101F50000F00B04201D00120E7E72878400705D5FF
:101F60002068E96820F4E0500843206028780007E2
:101F700006D52068296920F4604040EAC10020604D
:101F800000F04EF82168084AC1F30311515CC840C3
:101F90000649086006480068FFF70EF90020C4E70C
:101FA000003C0240083802406C74000884000020A5
:101FB0007C0000200F2202600C4A136803F0030328
:101FC0004360136803F0F0038360136803F4E05385
:101FD000C36012684FF4E05303EAD202026104487E
:101FE000006800F00F0008607047000008380240E9
:101FF000003C024001480068704700008400002057
:102000000448054900680968044AC1F34231515C3B
:10201000C840704784000020083802407C740008E3
:10202000154810B5006810F00C02144813D0411088
:10203000042A0FD0082A0ED10F4C241F22682368CF
:1020400002F03F025B0207D52068C0F38810A0FBB6
:10205000010106E0084610BD2168C1F38811A1FB0B
:1020600000010023FEF7BEF82168C1F30141491CBD
:102070004900B0FBF1F010BD083802400024F40024
:102080002DE9F84F040076D02078DFF838A3CE4D44
:10209000C00749D0DAF800105046C1F38101012988
:1020A00008D00068C0F3810002280AD1281D00680A
:1020B000400206D52868800336D560680028E2D043
:1020C00032E06068B0F5803F10D0B0F5A02F2868EE
:1020D00010D020F480302860286820F48020286008
:1020E0006068A0B1FFF740F806460CE0286840F4AD
:1020F0008030F4E740F480202860F7E7FFF734F8F9
:10210000801B642873D828688003F7D50CE0FFF79C
:102110002BF8064605E000BFFFF726F8801B642871
:10212000F0D828688003F7D42078DFF8A0828007F1
:102130004FF000093ED5DAF80010504611F00C0FB0
:1021400009D00068C0F3810002280BD19D48001F10
:102150000068400206D42868800715D5E068012889
:1021600009D111E0E068B8B10120C8F80000FEF71D
:10217000FBFF064605E020E1FEF7F6FF801B022884
:10218000C0D828688007F7D52868216920F0F800B2
:1021900040EAC10028600DE0C8F80090FEF7E4FFB7
:1021A000064604E0FEF7E0FF801B02281FD82868DF
:1021B0008007F7D42078000722D5824E84486169D1
:1021C0006C3671B101210160FEF7CEFF074604E0D5
:1021D000FEF7CAFFC01B022809D830688007F7D570
:1021E0000EE0C0F80090FEF7BFFF074605E082E072
:1021F000FEF7BAFFC01B02287DD830688007F7D4ED
:102200002078400768D5DFF8BCB100270BF1380B08
:10221000DBF80000C0000BD4DBF8001041F0805167
:10222000CBF80010DBF80000012700F08050009090
:10223000684E3068C00510D4306840F4807030605B
:10224000FEF792FF009005E0FEF78EFF0099401A1E
:10225000022850D83068C005F6D55A4EA0686836B6
:1022600001280FD00528306810D020F00100306020
:10227000306820F004003060A068B8B1FEF774FF49
:1022800000900FE0306840F00100F4E740F00400F7
:102290003060F7E7FEF768FF0099411A41F2883095
:1022A000814266D830688007F4D50EE0FEF75CFF07
:1022B000009007E0FEF758FF0099411A41F288307C
:1022C000814256D830688007F4D42FB1DBF8001073
:1022D00021F08051CBF80010A069D0B3DAF80020CB
:1022E0005146C2F38102022A4AD00228484607D04A
:1022F000C8F8600000E03CE0FEF736FF04463BE033
:102300004746C8F86000FEF72FFF064605E000BF0D
:10231000FEF72AFF801B02282BD828688001F7D4FB
:10232000D4E907010843A16A2B4A490802EB01419D
:10233000626A41EA8211084394F82C1040EA016174
:102340002048001F016001203866FEF70DFF04469B
:1023500005E034E0FEF708FF001B022809D82868D2
:102360008001F7D52BE000BFFEF7FEFE001B022820
:1023700002D90320BDE8F88F28688001F4D41EE05C
:102380000128F7D00868E26900F48001914214D175
:10239000226A00F03F0191420FD147F6C071626A94
:1023A0000140914209D1A26A00F44031914204D126
:1023B000E16A00F07060884201D00120DAE7002075
:1023C000D8E70000083802400038024000004742C9
:1023D000800E4742007000400000FFFF70B504000F
:1023E00002D0607F10B106E0012070BD0020207790
:1023F000204600F049F8022060772168CA20486230
:10240000216853204862204600F0E6FFFF2504269D
:1024100018BB206881681B4A114081602168886868
:1024200062681043D4E904231A431043886021688A
:10243000E068086120680169228941EA024101617E
:102440002068C16821F08001C16020688068800632
:1024500007D4204600F0FEF818B120684562667780
:10246000C2E72068016C21F4802101642068016CBE
:10247000A269114301642068456201206077002051
:1024800070BD0000BFFF8FFF00680349884202D182
:102490000249012008607047002800403C0E474276
:1024A0002DE9F0470446007F0B4601281FD04FF06E
:1024B000010984F81C9002206077DAB19878D97805
:1024C00040EA014558781978000240EA4130054356
:1024D0002168CA204862216853204862204600F0E3
:1024E0007BFF0026FF274FF0040860BB1AE00220A4
:1024F000BDE8F0875878C10603D500F0EF000A3038
:102500005870D87800F05CFF0204587800F058FF4B
:1025100042EA0022987800F053FF0243187842EA1A
:102520004035D5E70F480540206845602068C16800
:1025300021F08001C1602068806880060AD42046AE
:1025400000F088F830B12068476284F81D80267753
:102550000120CDE72068476284F81D90267700208F
:10256000C6E700003FFFFF002DE9F0470446007F6B
:102570000D46012827D04FF0010A84F81CA0022044
:1025800060772068002680684FEA4060F2B100283A
:1025900000DBEE70A878297840EA01476878E9788E
:1025A000000240EA014007432168CA2048622168CE
:1025B00053204862204600F00FFF4FF0FF084FF015
:1025C0000409A0BB16E00220BDE8F087002800DB6C
:1025D000EE70287800F0F4FE0204687800F0F0FE57
:1025E00042EA0022A87800F0EBFE0243E87842EAD3
:1025F0000047D9E7164807402068076020688168CF
:1026000021F480218160D5E90301084321688A68AB
:10261000104388602068C16821F08001C160206893
:10262000806880060BD4204600F014F838B1216889
:10263000C1F8248084F81D9026770120C4E7216822
:10264000C1F8248084F81DA026770020BCE7000094
:102650007F7F7F0070B504460068C16821F0A0014B
:10266000C160FEF781FD05464FF47A7607E000BFB2
:10267000FEF77AFD401BB04201D9032070BD2068EF
:10268000C0688006F4D5002070BD70B5040005D088
:102690000025A56294F8510010B106E0012070BD3C
:1026A00084F85050204600F031F8022084F85100A0
:1026B0002068016821F040010160D4E9010108436C
:1026C000D4E903121143084361690843218B01F4E3
:1026D00000710843E1690843216A0843A16A08437D
:1026E00021680860A069042101EA1040616A08437A
:1026F000216848602068C16921F40061C161656595
:10270000012084F85100002070BD000010B586B093
:10271000044614216846FDF7AFFD1449206888423D
:1027200021D113480021026842F48012026000683F
:1027300000F4801005900E481438026842F0200220
:102740000260006800F0200005904FF46070009077
:102750000220CDE901010320039005200490694681
:102760000448FEF711FC06B010BD00000050014007
:1027700044380240001402402DE9F84F044690F816
:10278000500000271D461646894601280DD04FF0FF
:10279000010B84F850B0FEF7E7FC804694F8510036
:1027A000BA46012804D002278EE00220BDE8F88F47
:1027B000B9F1000F7DD0002E7BD0032084F85100AA
:1027C000C4F854A0C4F83090A686E686C4F838A0B1
:1027D000A4F83CA0A4F83EA0C4F844A0C4F840A0CB
:1027E000A068B0F5004F04D12068016841F4804131
:1027F000016020680168490603D4016841F0400186
:102800000160E068B0F5006F606803D030B3012E5E
:1028100024D040E008B1012E1CD1206B2168008833
:10282000C86006E020688168890709D5216B09889E
:10283000C160206B801C2063E08E401EE08609E0B2
:10284000FEF792FCA0EB0800A84202D3681C01D05E
:1028500031E07DB3E08E0028E4D11FE0206B2168D9
:102860000078087306E020688168890709D5216B24
:1028700009780173206B401C2063E08E401EE086C7
:1028800009E0FEF771FCA0EB0800A84202D3681C27
:1028900001D010E075B1E08E0028E4D1424629460F
:1028A000204600F0B7FD08B120206065A06820B187
:1028B00007E008E0FFE7032706E02068C1688068BA
:1028C0000090606D00B1012784F851B084F850A0E9
:1028D00038466BE77047704710B5040003D094F892
:1028E0003D0010B107E0012010BD002084F83C003D
:1028F000204600F00CF8022084F83D00211D2068DD
:1029000000F064FE012084F83D00002010BD7047F7
:102910000168CA6842F00102CA600068816801F07B
:102920000701062903D0016841F001010160002080
:102930007047704770B50446006801694FF00005A4
:10294000C943890715D4C168C943890711D4E91E51
:10295000016101202077206880698007204602D02D
:10296000FFF7E7FF04E000F098F8204600F096F843
:10297000257720680169C943490717D4C168C9434D
:10298000490713D46FF00401016102202077206809
:10299000806910F4407F204602D0FFF7CAFF04E0B0
:1029A00000F07BF8204600F079F82577206801696F
:1029B000C943090716D4C168C943090712D46FF087
:1029C00008010161042020772068C0698007204643
:1029D00002D0FFF7AEFF04E000F05FF8204600F001
:1029E0005DF8257720680169C943C90617D4C16815
:1029F000C943C90613D46FF0100101610820207784
:102A00002068C06910F4407F204602D0FFF791FF94
:102A100004E000F042F8204600F040F825772068F6
:102A20000169C943C90708D1C168C943C90704D1AD
:102A3000891E0161204600F033F820680169C9430E
:102A4000090609D4C168C943090605D46FF080019D
:102A500001612046FFF73EFF20680169C94349062E
:102A600009D4C168C943490605D46FF0400101612A
:102A7000204600F01FF820680169C94389060BD47D
:102A8000C168C943890607D46FF02001016120465F
:102A9000BDE87040FFF71FBF70BD70477047000072
:102AA00000680349884201D1FEF764BB704700000B
:102AB000000001407047FEE72DE9F8431D46DDF8B0
:102AC000208014460E460746F0283ED24FF4A071EF
:102AD0008E423AD23819401EF02802DBC7F1F000CE
:102AE00084B27019401E884202DBC6F5A07085B220
:102AF00000F052F97019401E83B23819401E82B29C
:102B00003146384600F050F94FEA18208DF80000A1
:102B100001228DF8018051030D48FEF71FFB2E4660
:102B20004FF0FF370DE0254607E03B46022269469D
:102B30000848FFF721FE6D1EADB2002DF5D1761EBF
:102B4000B6B2002EEFD100F063F9BDE8F8830000C3
:102B5000000C02402402002008B5002100904FF430
:102B6000A073F0220846FFF7A7FF08BD7FB500F06D
:102B700013F9714D4FF48054002221462846FEF788
:102B8000EDFA0520FEF7C0F9012221462846FEF79E
:102B9000E5FA012000F08AF94FF47A70FEF7B4F9F3
:102BA000CB2000F083F965A1D1E90001CDE9000156
:102BB0000521684600F08EF9CF2000F077F961A07A
:102BC000032100680090684600F084F9E82000F0D6
:102BD0006DF95DA0032100680090684600F07AF965
:102BE000EA2000F063F9002402216846009400F016
:102BF00071F9ED2000F05AF954A00421006800900A
:102C0000684600F067F9F72000F050F950A0012164
:102C100000680090684600F05DF9C02000F046F9B9
:102C20004CA0012100680090684600F053F9C120D3
:102C300000F03CF948A0012100680090684600F0CF
:102C400049F9C52000F032F944A002210068009043
:102C5000684600F03FF9C72000F028F940A00121A4
:102C600000680090684600F035F9362000F01EF943
:102C70003CA0012100680090684600F02BF93A2042
:102C800000F014F938A0012100680090684600F0B7
:102C900021F9B12000F00AF934A002210068009067
:102CA000684600F017F9B62000F000F930A00321C3
:102CB00000680090684600F00DF9F22000F0F6F888
:102CC00001216846009400F005F9262000F0EEF896
:102CD00028A0012100680090684600F0FBF8E02081
:102CE00000F0E4F824A00FC88DE80F000F2168461B
:102CF00000F0F0F8E12000F0D9F823A10FC98DE829
:102D00000F000F21684600F0E5F8112000F0CEF822
:102D10007820FEF7F9F8292000F0C8F8362000F0F6
:102D2000C5F810A0012100680090684600F0D2F8B4
:102D3000BDE87F4000F06CB8000C0240392C003434
:102D40000200000000C13000850078006403128199
:102D50002000000023000000100000003E280000BA
:102D60008600000048000000550000000018000028
:102D700008822700010000000F312B0C0E084EF1D5
:102D8000370710030E090000000E1403110731C1AC
:102D900048080F0C31360F00002204210148FEF7CD
:102DA000DDB9000000080240F8B507461C4615468C
:102DB0000E462A2000F07AF8380A8DF800008DF8C7
:102DC0000170280A8DF802008DF80350042168462E
:102DD00000F080F82B2000F069F8300A8DF8000030
:102DE0008DF80160200A8DF802008DF8034004215F
:102DF000684600F06FF8BDE8F8402C2000F056B8A7
:102E0000012291020148FEF7A9B90000000002402A
:102E1000012204210148FEF7A1B900000008024088
:102E20000FB42DE9FF5FC3F307264A1E324494B264
:102E3000DFB2DDE913A9421E3A4492B22346FFF7FE
:102E4000B3FF00252CE01098203810FB0650129993
:102E5000002409F0FF0B31F810804FEA1A2002908D
:102E60000AF0FF0001904FEA1920009015E000BF22
:102E700008FA04F0000406D502988DF80C000198B9
:102E80008DF80D0004E000988DF80C008DF80DB061
:102E9000022103A800F01EF8641CA742E8D86D1CAC
:102EA000AE42D0D8BDE8FF1F5DF814FB01B500228B
:102EB0004FF400510548FEF751F94FF0FF3301225E
:102EC00069460348FFF758FC08BD0000000C0240AB
:102ED000240200202DE9F0410C4606460122510350
:102EE0000C48FEF73BF94FF400474FF0FF380DE078
:102EF000BC4201D9384600E0204685B243462A4606
:102F000031460548FFF738FC2E44641B002CEFD1F6
:102F1000BDE8F081000C0240240200202DE9FE4FA4
:102F20009846DDE90DA914460E460546DDF830B099
:102F3000FFF732FF08F0FF0719E07819F0280AD3ED
:102F4000C8F3072081198EB200253044B0F5A07F68
:102F500010D2202A0AD0CDF800B0CDE901A943460D
:102F600031462846FFF75CFF781985B2641C227849
:102F7000002AE2D1BDE8FE4FFFF74ABFF0B50023BB
:102F80000A24302537261F4611E000BFB4EB107F1E
:102F900002D905EB107C01E006EB107C01F813C0B0
:102FA00001EB430C00015B1C8CF80170DBB2934217
:102FB000ECD3F0BD7FB50024144800940194029432
:102FC00011490394C0E9001484600461047680F818
:102FD00020400F49C0E90A140125C561C46080F88A
:102FE00030404561FDF76BFE08B1FDF7B1FD0948C2
:102FF000CDE90005694602940448FDF7ABFD0028C1
:1030000001D0FDF7A5FD7FBD00200140BC010020DF
:103010000100000F120000102DE9F04186B01421CC
:103020006846FDF729F933480024016841F0200182
:103030000160016801F020010591016841F0800103
:103040000160016801F080010591016841F004010F
:103050000160016801F004010591016841F001017E
:103060000160016801F001010591016841F0020170
:103070000160016801F002010591016841F0080159
:10308000016000681C4F00F0080005900022042138
:103090003846FEF763F8DFF864804FF440560022AC
:1030A00031464046FEF75AF8042000900125CDE94C
:1030B0000154694638460394FDF766FF10480095B1
:1030C000CDE9010469460F48FDF75EFF0096CDE9A2
:1030D0000154694640460394FDF756FF002211460D
:1030E0000620FEF7C9F80620FEF7B8F806B0BDE8DE
:1030F000F08100003038024000080240000C02401D
:10310000000011100000024030B587B0142168465D
:10311000FDF7B2F81F4800241D4940250594C0E979
:1031200000157F218160FF21C0E90314446184619F
:10313000FFF754F908B1FDF70BFD0A208DF80000E8
:103140000F208DF801008DF802408DF80350039494
:10315000002269460F480494FFF706FA08B1FDF70C
:10316000F7FC01208DF8140005208DF815000420CF
:103170008DF8160014208DF81700002205A90548C7
:10318000FFF78EF9002801D0FDF7E2FC07B030BD53
:1031900000280040040200200F4810B50D490160CE
:1031A0004FF48271416000218160C1604FF4007270
:1031B0000161C0E90512C1610162416281620A21B7
:1031C000C162FFF762FA002803D0BDE81040FDF7A6
:1031D000BFBC10BD005001402402002010B50122E8
:1031E0000F49104800F030FD08B1FDF7B1FC0E4961
:1031F0000C4800F00DFF08B1FDF7AAFC0B49094887
:1032000000F02EFB08B1FDF7A3FC064800F056FFC6
:10321000002803D0BDE81040FDF79ABC10BD0000A7
:10322000180000207C0200206401002068000020BB
:10323000FEE770470148FEF79FB90000180500201F
:103240002DE9F041044600680E46016C00EB46157E
:10325000D5F8080B276920234FF40042012F08D02E
:103260002C4FB9424FD1010449D500BFC5F8082BF6
:103270004DE0DFF8A4C05FEA007E04F5717711D558
:10328000614503D9000401D5C5F8082B2046FEF797
:103290008DFC3A460121206801F0CEFA0820C5F8DD
:1032A000080B34E05FEA806E02D5C5F8083B2EE0DB
:1032B00010F0280F2BD1614501D90004D6D4C6EBFC
:1032C000C60004EB8000D5F8102BD0F80412C2F32E
:1032D00012028A1AC0F81422D0F808221144C0F849
:1032E0000812F1B22046FEF72DF886B9D4F8100284
:1032F00068B93A460121206801F09EFA07E080068D
:1033000001D5C5F8083BF1B22046FEF71BF80020B6
:10331000BDE8F0810A31544F0A30544F2DE9F84F7F
:103320000E46C1EBC60100EB810481460568D4E975
:1033300014103C34884202D90120BDE8F88F081AE5
:10334000A168814200D20846C01C870805EB4618D8
:103350001BE000BFA0EB010AA068504500D28246E6
:103360000AF10300870899F8100000901FFA8AF309
:10337000F2B22846E16801F0E7FCE16801EB0A00DF
:10338000E060A16901EB0A00A061D8F8180980B2D9
:10339000B84205D3D4E90501814201D20028D9D130
:1033A000D4E90501884208D806F00F0101208840C1
:1033B000D5F834188143C5F834180020BDE77047AC
:1033C000002102E00A38C0B2491C0A28FAD20907D3
:1033D00040EA11607047000070B504460068C1689B
:1033E000490614D44FF0FF31C160FDF7BDFE05461C
:1033F0004FF47A7607E000BFFDF7B6FE401BB042FF
:1034000001D9032070BD2068C0684006F4D50020B3
:1034100070BD000038B504461248134B0068B0FB7D
:10342000F3F04FF47A73584300906068B0F5827FF0
:103430000DD10B46009200228021204600F016F8A4
:1034400070B1606D40F020006065032038BD0098C9
:1034500030B1401E009020688068C0430006F6D559
:10346000002038BD8400002000366E012DE9F041B7
:103470001D4617460E460446DDF8188008E0681C15
:1034800006D0FDF771FEA0EB0800A8420BD255B1A3
:103490002068806836EA000030D00020B842EED1C3
:1034A0000020BDE8F0812068416821F0E001416022
:1034B0006068B0F5827F0BD1A068B0F5004F02D0F4
:1034C000B0F5806F04D12068016821F040010160EF
:1034D000A06AB0F5005F09D12068016821F40051AD
:1034E00001602068016841F400510160012084F806
:1034F0005100002084F850000320D2E70120CDE7DE
:103500007047704730B59FB030216846FCF7B4FE75
:10351000142118A8FCF7B0FE30210CA8FCF7ACFE73
:103520001E480025016841F080510160006800F0EC
:1035300080501D901A48016821F4404141F48041B7
:1035400001600068022400F440401D9009200090B2
:103550004FF4803001900120CDE9050480050790EB
:10356000042008904820CDE9090403200B90684608
:10357000FEF786FD18A90F2081E83100E0021B90BC
:103580001C90022118A8FEF77BFC20200C90000163
:1035900016900CA8FEF74AFB1FB030BD4038024021
:1035A000007000400548016841F470010160034962
:1035B0004FF00060803908607047000088ED00E03F
:1035C0000148FFF7B7B90000201B0020F0B50268E2
:1035D000254C264D264E274F274B4FF0804CA042BE
:1035E00009D0604507D0A84205D0B04203D0B84208
:1035F00001D0984204D122F0700E4A6842EA0E02CD
:10360000A0421BD0604519D0A84217D0B04215D0B7
:10361000B84213D0984211D0184DA8420ED0184D80
:10362000A8420BD0174DA84208D0174DA84205D08C
:10363000164DA84202D0164DA84203D122F440757F
:10364000CA682A434D6922F080022A4302608A68D0
:10365000C2620A688262A04201D0984201D109691F
:10366000016301214161F0BD000001400004004000
:1036700000080040000C00400004014000400140F0
:10368000004401400048014000180040001C004078
:10369000002000402DE9F041D0F89832D0F8902277
:1036A000DAB101EB810400EB84040025E6694EB138
:1036B000C1EBC10703EB87035B6CB6FBF3F703FBBE
:1036C000176323B1C2F814520020BDE8F081002333
:1036D0001A46E56100F07FFCF6E70220F5E770B5D9
:1036E0000546D0F8904200F087FBC4F80C02D5F8EC
:1036F000900248B1D5F89412D4F80402CA6804F5CF
:1037000003719047002070BD022070BD70B5044663
:103710000026812100F0B6FA002501212046E5624D
:1037200000F0B0FA82212046C4F8585100F0AAFAFD
:103730002564D4F8900248B1D4F8940204F52474B6
:1037400040688047206802F019FB2560304670BD54
:1037500010B5D0E9A44159B194F80002FF2807D070
:103760008B6894F8012221469847FF2084F80002D4
:10377000002010BD0A210180004870478C00002005
:103780004321018000487047DC0000204321018074
:10379000004870479800002043210180004870478E
:1037A000200100202DE9F04104460026007C4FF462
:1037B0000077012590B3402302228121204600F0AA
:1037C00067FB4023E56202220121204600F060FBF6
:1037D0000823032282212046C4F8585100F058FBE8
:1037E0004FF40770256402F021FCC4F89002F8B190
:1037F0000546D4F89402006880470020C5F81402FA
:10380000C5F81802207CD5F8042298B14023012184
:10381000204600F049FB3046BDE8F081FFE73B461B
:1038200002228121204600F033FB3B46E562CAE7D5
:103830000126F0E73B46EAE710B5D0F8901269B1EF
:10384000027C002AD1F8042205D04023012100F097
:103850002BFB002010BD4FF40073F7E7022010BDD2
:1038600002460220002902D00020C2F894127047BC
:10387000D0F89002C0F8041200207047D0F89002EF
:10388000C0F81022C0F80812002070472DE9FC4152
:103890000546D0F8907200208DF80000ADF80400C5
:1038A000064608780C4610F0600121D020293BD153
:1038B000E288AAB10006607807D5D5F894128B6823
:1038C00039469847E288394626E087F80002A07911
:1038D00087F80102E2883946284600F06AF828E0B5
:1038E000D5F89412607800228B682146984720E032
:1038F000607820B10A2809D00B2815D110E095F87E
:103900007402032810D1022201A905E095F874027F
:10391000032809D101226946284600F064F808E02E
:1039200095F87402032804D02146284600F036F8A2
:1039300002263046BDE8FC8110B5D0F89012A1B146
:10394000D1F814220AB1012010BD0122C1F81422BD
:10395000D1F810220263B1F8102293B2D1F80822F4
:10396000812100F038FB002010BD022010BD10B5F1
:10397000D0F88C2252689047002010BD134610B535
:103980000A46002100F090FA002010BD134610B541
:103990000A46002100F01FFB002010BD10B50446B0
:1039A000802100F0FDFA2046BDE81040002100F023
:1039B000F7BA10B50323C0F84821C0F86C32C0F83C
:1039C0004C2113460A46002100F06EFA002010BD7B
:1039D00010B505210023C0F86C121A46194600F0F4
:1039E00063FA002010BD10B50223C261C0F86C322A
:1039F000026213460A46002100F0EDFA002010BDD5
:103A000010B504210023C0F86C121A46194600F0C4
:103A1000E2FA002010BDF8B5044648880D46010AB8
:103A200008294BD2DFE801F04A0409174A4A404806
:103A3000D4F88812207C0A6832E0207C0226002814
:103A4000D4F88C0205D0C16A6846884701464670A2
:103A500041E0816AF8E7C0B206282FD2DFE800F023
:103A600003080D12171CD4F88812207C4A6817E04E
:103A7000D4F88812207C8A6812E0D4F88812207C5E
:103A8000CA680DE0D4F88812207C0A6908E0D4F8EE
:103A90008812207C4A6903E0D4F88812207C8A6965
:103AA00069469047014616E0207C38B9D4F88C026C
:103AB000416B68468847F5E7207C20B129462046BF
:103AC000FFF76CFFF8BDD4F88C02016B684688479D
:103AD000014607204870BDF8000048B1EA8852B19D
:103AE000824200D90246ADF800202046FFF77BFF56
:103AF000E8880028E6D12046FFF782FFF8BD70B5C0
:103B0000002300281ED00446002502E06D1CEDB203
:103B1000641C2678002EF9D1022404EB450414809D
:103B20001278CA545B1C0322CA5400245B1C06E0B2
:103B3000CA545B1CDAB28C54521CD3B2401C0278BB
:103B4000002AF5D170BD01004FF0000004D001291A
:103B500001D0022901D002207047012070470000E7
:103B600010B50A46024903A0FFF7C9FF004810BD7F
:103B70002009002043444320436F6E6669670000BC
:103B800012200880004870473800002010B50A460F
:103B9000024903A0FFF7B3FF004810BD2009002031
:103BA00043444320496E746572666163650000009A
:103BB00004200880004870473400002010B50A46F1
:103BC000024903A0FFF79BFF004810BD2009002019
:103BD00053544D6963726F656C656374726F6E697F
:103BE0006373000010B50A46024903A0FFF787FF80
:103BF000004810BD2009002053544D33322056692F
:103C0000727475616C20436F6D506F7274000000A8
:103C100010B51A2008800A480168001D0468001DBC
:103C20000068081809D008220649FFF7A7F90549D6
:103C3000042210312046FFF7A1F90248801E10BD72
:103C4000107AFF1F4E00002010B580B1D0F88C32E2
:103C500013B10023C0F88C3209B1C0F888120121D9
:103C600080F87412027000F0CBF8002010BD022022
:103C700010BD10B5D0F89802FDF798FBBDE81040D4
:103C8000FFF761BF10B5D0F89802FDF769FBBDE8FA
:103C90001040FFF758BF2DE9F0411746044651B1D7
:103CA000D4F88C0242691AB194F87402032851D0F6
:103CB0000220BDE8F081D4F86C32002504F1140034
:103CC000022B03D0042B3AD0C3B33CE0D0E903630A
:103CD0009E4207D9F11AC1608AB239462046FFF7E1
:103CE00055FE12E08068B0FBF3F103FB110199B9B6
:103CF000984211D3D4F8701288420DD20022114696
:103D00002046FFF743FEC4F8705200231A461946B6
:103D1000204600F0C9F816E0D4F88C02C16829B139
:103D200094F87402032801D1204688478021204658
:103D300000F036F92046FFF74BFE04E0FFE7802154
:103D4000204600F02DF994F87802012804D184F877
:103D5000785201E0204690470020AAE770B515464A
:103D6000044649B1D4F88C0282691AB194F87402FD
:103D7000032830D0022070BDD4F86C1204F5A07076
:103D8000032902D005291ED027E0D0E903218A4269
:103D90000BD9531AC3600846834200D303469AB234
:103DA00029462046FFF7EAFD17E0D4F88C020169A6
:103DB00029B194F87402032801D12046884720468F
:103DC000FFF71EFE09E000200146C4F86C02204601
:103DD00000F0E6F801E020469047002070BD00208A
:103DE000704710B5012180F87412D0F88C22017947
:103DF00052689047002010BDD0F89802FDF704BB30
:103E000010B50178012929D115490222C1F804040D
:103E1000C0F8981213480860062048600020C1E9E5
:103E20000320C1E9062008624862C862086348634B
:103E30000846FDF7DBFD08B1FCF78AFE4FF4007180
:103E40000748FDF74CFA802200210548FDF74BFAA0
:103E50004FF4BA7201210248FDF745FA002010BD67
:103E600018050020000004400A0601F07F01D0F888
:103E70009802C1EBC10100EB810002D590F83E0031
:103E8000704790F8FE01704700207047002070478F
:103E900010B51C461346D0F898022246FDF7BDFA2D
:103EA000BDE81040FFF74FBE10B5D0F89802FDF7FF
:103EB000E4FABDE81040FFF746BE70B500220446A4
:103EC00040231146FFF7E4FF40260125C4F8506166
:103ED0003346002280212046C4F84451FFF7D8FF22
:103EE0006662A56184F874520020C4F86C026060B8
:103EF000C4F87C02D4F8900228B1D4F88C020021D6
:103F0000426820469047002070BD90F8751280F8F6
:103F100074120020704710B590F87412032904D170
:103F2000D0F88C12C96901B18847002010BD017416
:103F30000020704710B5D0F89802FDF723FEBDE8C9
:103F40001040FFF700BE70B5044600F5207005462E
:103F500000F04AF80120C4F86C02B4F88602C4F8F4
:103F6000700294F8800210F01F010AD001290DD0D0
:103F7000022910D000F08001204600F011F8002046
:103F800070BD2946204600F09EF8F8E729462046F5
:103F900000F0CAF9F3E72946204600F01DF9EEE7E4
:103FA00010B5D0F89802FDF78CFABDE81040FFF785
:103FB000CABD10B5D0F89802FDF7FFFDBDE810406E
:103FC000FFF7C1BD90F8741280F87512042180F8D3
:103FD00074120020704710B5D0F89802FDF7ABFAC4
:103FE000BDE81040FFF7AFBD0A7802704A78427012
:103FF0008A78CB7802EB032242800A794B7902EB74
:10400000032282808A79C97902EB0121C18070473D
:104010000246002011B1C2F88C127047022070478E
:1040200010B5D0F88C2202241AB11268904700B95A
:104030000024204610BD000070B50E461E4D897844
:1040400004462970012931D894F8740202280BD053
:1040500003280FD031462046FFF7A0FC29782046E0
:10406000BDE87040FFF783BCD9B10320616084F8DC
:10407000740209E071B16068884212D0C1B2204672
:10408000FFF775FC297861602046FFF7C9FF022819
:104090000CD006E0022084F8740220466160FFF72D
:1040A00066FC2046BDE87040FFF7AABC31462046BA
:1040B000BDE87040FFF772BC8800002010B5FFF724
:1040C00078FF002010BD2DE9F0410A78002612F09B
:1040D000600208D0202A01D0402A70D1D0F88C226A
:1040E000926890476DE04B78002201250A2B66D23A
:1040F000DFE803F0405D6557650805652C29FFF78B
:104100008AFC5EE004468888D8B9C888C8B948885F
:10411000802816D200F07F0794F87402032810D08C
:1041200084F8767239462046FFF704FF2046FFF7F1
:1041300067FC1FB1022084F8740242E084F87452D4
:104140003FE020463BE0FFF777FF3AE0CB88012BCA
:1041500035D190F87432012B04D0022B02D0032BFE
:104160002DD104E08260012200F1080116E0012255
:10417000011D13E090F87422012A03D0022A01D015
:10418000032A1CD1CA88022A19D1C560D0F87C1232
:1041900009B10321C160022200F10C01FFF723FCE9
:1041A0000FE0498801290CD1C0F87C5211E090F849
:1041B0007432012B08D0022B06D0032B04D0FFF75A
:1041C000EDFB3046BDE8F08149880129F9D1C0F8FE
:1041D0007C22FFF715FCF4E72DE9F0410A4604467E
:1041E00010780027097910F060030AD0202B01D045
:1041F000402B50D1D4F88C02114683682046984752
:104200008FE0C0F34110012806D05078D0B30128C8
:104210002AD003283FD107E0D4F88C0211468368E6
:104220002046BDE8F041184794F87402022802D0F5
:10423000032872D10AE071B380296ED02046FFF7BF
:10424000AFFE80212046FFF7ABFE6AE0508838B908
:1042500031B1802904D0D08810B92046FFF7A0FEE4
:104260002046FFF7CDFB5CE094F874020228E2D010
:10427000032852D1508898BB4806F1D02046FFF75A
:10428000F8FCEDE7FFE794F874020026022803D05B
:10429000032842D112E040E009B180293DD108064F
:1042A00001F07F0000EB800004EB800101D51431A8
:1042B00001E001F5A07102220E602AE0080601F07B
:1042C0000F0000EB800004EB80000AD5806920B36A
:1042D00001F07F0000EB800004EB800514350BE05B
:1042E0001FE0D0F84401C0B101F07F0000EB800076
:1042F00004EB800505F5A07541B1802906D0204664
:10430000FFF7B2FD10B10120286000E02E6002220C
:1043100029462046FFF767FB03E011462046FFF7DA
:104320003DFB3846BDE8F08170B5054608780C467F
:1043300010F0600003D0202801D0402816D195F855
:104340007402012803D0022801D003280ED120795D
:1043500001280BD8D5F88C02826828469047E1885E
:10436000014306D12846FFF74BFB02E02846FFF742
:1043700015FB002070BD000070B50A78012302F023
:104380000F054E78AB401B4CD0F81C58012E17D0AF
:1043900045EA0343C0F81C3800EB4210D0F8002B6C
:1043A00012040BD4D0F8002B0B89C978C3F30A038D
:1043B0001A4344EA81410A43C0F8002B002070BD33
:1043C0009BB21D43C0F81C5800EB4210D0F80039D6
:1043D0001B04F3D4D0F800390D89C978C5F30A0558
:1043E00089042B4341EA82510B432343C0F800392F
:1043F000E4E7000000800010D0F800196FF30A0114
:10440000C0F80019D0F80818C1F34101022905D1FC
:10441000D0F8001941F00301C0F80019D0F80418D1
:1044200041F48071C0F804180020704770B504464C
:1044300006990A9E049D0D98012916D0E06840F067
:104440004000E060204600F02BF8A16B1EB321F481
:104450008031A163012D07D1A16841F00601A1605F
:10446000A16841F02001A16070BDA16B21F48031F1
:10447000A163E168094A1140E160E16821F440115B
:10448000E160012803D1E06840F48010E06020463C
:1044900000F006F8DEE741F48031DAE7BFFFBDFF48
:1044A00001220C4902E0521C8A420BD80369002BFE
:1044B000F9DA026942F001020261012204E0521CB1
:1044C0008A4201D9032070470369DB07F7D1002036
:1044D00070470000400D030030B50B784D78012285
:1044E00003F00F0402FA04F4012DD0F83C5817D061
:1044F00025EA0444C0F83C48D0F81C48097801F08B
:104500000F018A4024EA0241C0F81C1800EB431056
:10451000D0F8001B0E4A1140C0F8001B002030BD2F
:10452000A4B2A543C0F83C58D0F81C48097801F063
:104530000F018A4091B28C43C0F81C4800EB431035
:10454000D0F80019034A1140C0F80019E6E700004E
:104550000078F3EF007833EC10B5D0F8041821F0B0
:104560000201C0F804180320FCF7CEFC002010BDA7
:1045700010B5D0F8041841F00201C0F80418032067
:10458000FCF7C2FC002010BD2DE9F04F0025DDE94D
:104590000BCB0E460446DDF84090099F284629467D
:1045A00004EB8002C2F80411401C0F28F8D3B9F1C3
:1045B000000F204618D0006820F400122260A06B83
:1045C00040F40022A26308468846C4F8000ED4F8DE
:1045D00000182046C4F80018BCF1010F10D0D0F824
:1045E000001841F0030110E0806B40F40012A26358
:1045F000A06B20F40022A263A06B20F48022E1E7EC
:10460000D0F800180BB141F00101C0F800181021DA
:1046100000F0A0FA00B10125204600F08BFA00B1AD
:1046200001254046C4F81088C4F81488C4F81C88D2
:1046300000214FF000634FF090484FF67F3A14E0AE
:1046400004EB4112D2F800C9BCF1000F06DA11B137
:10465000C2F8008904E0C4F8003901E0C2F800099A
:10466000C2F81009C2F808A9491C8E42E8D80021F6
:1046700015E000BF04EB4112D2F800CBBCF1000FF3
:1046800006DA11B1C2F8008B04E0C4F8003B01E087
:10469000C2F8000BC2F8100BC2F808AB491C8E42DE
:1046A000E8D8D4F8101821F480722146C4F81028F4
:1046B000012F08D1134AC1F83028D1F83018124A16
:1046C0001143C4F83018A0616FF0804060611FB9D9
:1046D000A06940F01000A061A0690C490843A061E6
:1046E000BBF1000F03D0A06940F00800A061B9F150
:1046F000010F03D1A06906490843A0612846BDE81F
:10470000F08F0000000180000300010000383C80B1
:1047100004000040816821F00101816000207047A1
:1047200070B50D784E78434CEBB200EB4313012E7D
:104730001FD0D3F8100B6FF31200C3F8100BD3F88F
:10474000100B2040C3F8100B486908B18868486115
:10475000D3F8100B40F40020C3F8100BD3F8100B63
:104760008C68C4F312042043C3F8100B012A55D0FF
:1047700058E04E69002ED3F8106932D06FF312065C
:10478000C3F81069D3F810692640C3F810694E6960
:104790008C68A64200D94C61D3F8104944F4002437
:1047A000C3F81049D3F810494E69C6F312063443D2
:1047B000C3F81049012A22D000EB4512D2F8003983
:1047C00043F00443C2F800394A6932B3D0F83428C0
:1047D000097801F00F03012199400A43C0F83428F9
:1047E00026E02640C3F81069D3F8104944F40024A9
:1047F000C3F81049D3F810496FF31204D8E70969D8
:1048000019B100EB4512C2F8141900EB4510D0F8AD
:10481000001941F00441C0F8001909E0C86808B166
:10482000C3F8140BD3F8000B40F00440C3F8000B9E
:10483000002070BDFFFF07E010B5036C134CA342CE
:1048400003D9D0F8003B002B1EDB0023C0F8103B3F
:10485000D0F8103B43F40023C0F8103BD0F8103BD5
:1048600043F01803C0F8103BD0F8103B43F0C043AE
:10487000C0F8103B012907D1C0F8142BD0F8001B59
:1048800041F08021C0F8001B002010BD0A30544FB9
:104890004A780B78012A00EB43100BD0D0F8002B9C
:1048A00022F40012C0F8002BC978032914D0022981
:1048B00012D017E0D0F8002922F40012C0F8002925
:1048C000C978032901D002290CD1D0F8001941F090
:1048D0008051C0F8001905E0D0F8001B41F080516C
:1048E000C0F8001B002070470A784B78D1B200EB6B
:1048F0004110012B12D0D0F8001B002906DB2AB191
:10490000D0F8001B21F08041C0F8001BD0F8001B3C
:1049100041F40011C0F8001B00207047D0F80019C6
:10492000002906DB2AB1D0F8001921F08041C0F837
:104930000019D0F8001941F40011C0F80019EBE794
:10494000F8B50C784F78774DE3B26FF0604600EB26
:104950004313012F26D0D3F8104B6FF31204C3F882
:10496000104BD3F8104B2C40C3F8104B4C69002C63
:1049700074D08D682C44641EB4FBF5F4D3F8105B3E
:10498000A4B206EAC4463543C3F8105BD3F8105B03
:104990008E686643C6F312042543C3F8105B012AF0
:1049A00071D0A6E04F691FB3D3F810796FF31207E7
:1049B000C3F81079D3F810792F40C3F810794F69F4
:1049C0008D682F447F1EB7FBF5F506EAC545D3F881
:1049D00010693543C3F81059D3F810594E69C6F31E
:1049E00012063543C3F81059CD78012D10D01BE0C5
:1049F000D3F810692E40C3F81069D3F8105945F464
:104A00000025C3F81059D3F810596FF3120509E0C7
:104A1000D3F8105925F0C045C3F81059D3F81059F0
:104A200045F00055C3F81059012A18D000EB441383
:104A3000D3F8004944F00444C3F80049CC78012C71
:104A40002FD04A6962B3D0F83428097801F00F03F7
:104A5000012199400A43C0F8342860E036E00A6931
:104A60001AB100EB4413C3F81429C97801290FD1F6
:104A7000D0F80818C90500EB4411D1F8002903D477
:104A800042F0005202E030E042F08052C1F80029CA
:104A900000EB4410D0F8001941F00441C0F80019AF
:104AA0003DE0D0F80848E405D3F8004902D444F0CA
:104AB000005401E044F08054C3F8004900928A8A0F
:104AC00093B20A78C96800F03FF928E0D3F8104B98
:104AD0008D68C5F312052C43C3F8104BD3F8104B67
:104AE00044F40024C3F8104B59E7CA680AB1C3F86C
:104AF000142BC97801290CD1D0F80808C005D3F8C7
:104B0000000B02D440F0005001E040F08050C3F8A8
:104B1000000BD3F8000B40F00440C3F8000B00205A
:104B2000F8BD0000FFFF07E0816841F001018160EE
:104B300000207047002110220261054A491C914261
:104B400001D9032070470369DB06F7D400207047C2
:104B5000400D03000022202343EA81110161054931
:104B6000521C8A4201D90320704703699B06F7D47F
:104B700000207047400D0300D0F8080810F0060030
:104B800004D0022803D0062801D00F20704702204D
:104B90007047406900F001007047D0F81818D0F84D
:104BA0001C08084080B27047D0F81818D0F81C08CC
:104BB0000840000C704710B5D0F81038D0F83428F1
:104BC00001F00F0400EB4110E24002F00102D0F8C6
:104BD000080943EAC212104010BD00EB4111D1F8A0
:104BE000081BD0F8140808407047416980690840E4
:104BF0007047D21C10B59308002200F5805002E0E7
:104C00000468521C10C19A42FAD3084610BD10B570
:104C1000C26822F0C042C260012902D029B101203D
:104C200010BDC16841F0005102E0C16841F080410F
:104C3000C1603220FCF768F9002010BDD0F80028D0
:104C400022F4FE62C0F80028D0F800284FF4FE637A
:104C500003EA01110A43C0F8002800207047000051
:104C6000022A3ED1264A274B0A449A4201D20F21FA
:104C700038E0254A254B0A449A4201D20E2131E000
:104C8000234A244B0A449A4201D20D212AE0224AA7
:104C9000224B0A449A4201D20C2123E0204A214BA4
:104CA0000A449A4201D20B211CE01F4A1F4B0A44BE
:104CB0009A4201D20A2115E01D4A1E4B0A449A422B
:104CC0000FD31D4A1D4B0A449A4201D2082109E024
:104CD0001B4A11441B4A914201D2072102E00621DE
:104CE00000E00921C26822F47052C260C2684FF429
:104CF000705303EA81210A43C2600020704700001C
:104D0000405327FF00350C00401E1BFF40420F00A0
:104D100000DC0BFF804F1200808CF9FE20D61300C0
:104D200060B6E5FE60E3160000D3CEFE40771B00C0
:104D3000C05BB3FEC091210000CA91FE207538000F
:104D4000E05459FEE09C410010B5029C64B9DB1CA4
:104D50009C0800EB0230002300F5805002E004C9FB
:104D600002605B1CA342FAD3002010BDFEE70000E6
:104D70000FB4084B10B504A902AA039800F042FF33
:104D8000044602A9002000F0E7FF204610BC5DF8B1
:104D900014FB0000595D000803B40198410000981D
:104DA00050EAC12018BF04204A0D18BF40F001008E
:104DB00040F2FF72B2EB515F08BF40F002000128E1
:104DC00008BF052002B070470907090E002804DB60
:104DD00000F1E02080F80014704700F00F0000F1AF
:104DE000E02080F8141D70472DE9F04D2DED040BE7
:104DF0002DED0E8B96B0DDE92550279CDDF890A0B7
:104E000025F0004624F00048BAF1000F14BF01213C
:104E1000002101EB4502FC4953184A1093422AD362
:104E2000002814BF0123002303EB44030B44F7497C
:104E30008B4220D358EA00019FEDF59B76D0DFF836
:104E4000D8B35D4503D1BAF1000F05D188E0BAF1BE
:104E5000000F08BF002100D0012101EB450111F531
:104E6000001F08D8002814BF0121002101EB4401D4
:104E700011F5001F0BD99DED261B9DED240B16B0DF
:104E8000BDEC0E8B04B0BDE8F04D00F069BE00270C
:104E9000002DBCBFE149884521DAE1498845A8BF1A
:104EA00002271CDAC3451ADCDE4901EB285114291C
:104EB00008DDC1F1340220FA02F101FA02F2824265
:104EC0000DD108E058B9C1F1140228FA02F101FA33
:104ED00002F2424503D101F00101C1F1020756EA95
:104EE0000A0124D1002C22DA002D18BF022F01D094
:104EF000012F0AD0022000F07FFE16B0BDEC0E8B11
:104F000004B0BDE8F04D00F013BE022000F074FEC6
:104F100000F00EFE51EC100B81F0004141EC100B43
:104F200016B0BDEC0E8B04B0BDE8F08D18E09FED1F
:104F3000BEAB9FEDBF8B002871D1B848804522D110
:104F400005F1804010F5801008BFBAF1000F07D0BE
:104F5000B3450ADC002CA8BF9DED260BE0DA0DE07E
:104F6000B0EE490AF0EE690ADAE7002C06DA9DEDA8
:104F7000260B51EC100B81F000416FE0AE487844F5
:104F800090ED000BCCE7D8454DD1002C48DA2EB17E
:104F900086423AD1BAF1000F42D126E0BAF1000FB1
:104FA00013D0022000F028FE00F0F6FD8DED020B7C
:104FB0009DED240B8DED000B10EE900A039961F32B
:104FC0001E0003909DED020BAAE78DED02AB9DED57
:104FD000240B1AEE901A10EE900A8DED000B61F37F
:104FE0001E0003909DED020B9AE78DED028B9DED67
:104FF000240B18EE901A10EE900A8DED000B61F361
:105000001E0003909DED020B8AE709DA9DED240B4B
:1050100051EC190B53EC102BFBF759FA1EE020E072
:105020009DED240B7CE786421BDAB4F1804F0DD056
:10503000A4F10050B0F1FF5013D1002D11DB9DED14
:10504000240B51EC100B01F034F807E09DED240B1C
:1050500053EC102B51EC100B00F0C2BC41EC100BC8
:105060005EE79DED240B51EC100B00F07AFEBAF1D7
:10507000000FCDE90E0142D19FED710B46B3A6F1B1
:10508000E040B0F17F600CD05E4538D1002D00DAF1
:10509000A7B3022F0CBF01204FF0FF30FBF786FAB9
:1050A000DCE7002D01DD002C0DDA002D01DD002CE8
:1050B0001FDB002D16DA002C14DB012F08BF9FED3B
:1050C000620B3FF42DAFB0EE4A0AF0EE6A0A27E712
:1050D000022F18BF002D0CD0012F0AD1002DFFF692
:1050E0001FAF06E0002DB8BF002C08DA012F3FF4F7
:1050F00017AFB0EE480AF0EE680A11E71BE0012096
:1051000000EBE57050EA070115D0791EB0EE498A30
:10511000F0EE698A084308BF9FED4D8B4E4800258D
:10512000804570DD4D494E48884514DDB0420DDBA9
:10513000002C19DB2FE0012000F05EFD16B0BDEC65
:105140000E8B04B0BDE8F04D00F016BDB34502DC97
:10515000002C09DC1FE0864202DA002C1BDA03E097
:105160005E452BDD002C16DD022000F045FD00F031
:1051700013FD8DED020B53EC1A2B51EC180BFBF7C2
:1051800034F9CDE900010399019861F31E00039001
:105190009DED020BC4E6022000F02EFD00F00CFD98
:1051A00010EE901A18EE900A8DED020B8DED008B2B
:1051B00061F31E0003909DED020BB1E69DED0E0B19
:1051C00053EC192B51EC100BFBF709F99FED260B53
:1051D000CDE9080153EC102B9DED080B51EC100BA1
:1051E000FBF703F99FED221B53EC112BFBF7FAF8A9
:1051F0009DED081B53EC112BFBF7F7F89FED1E1BE1
:1052000053EC112B3CE08CE0FFFF1F00FFFF0F0071
:10521000000000000000F03F0000F03F0000F07FC1
:105220000000404301FCFFFF000000000000F07F91
:1052300000000000000000008E25000000000000BB
:105240000000000000000080000000000000F0FFEF
:10525000000000000000F0BF0000E0410000F0434B
:10526000FFFFEF3F00000000000000000000D03F03
:10527000555555555555D53F000000000000E03FFD
:10528000FBF7B0F89DED080B41EC1A0B53EC102B1B
:1052900051EC100BFBF7A9F853EC1A2BFBF7A5F810
:1052A00041EC1A0B9FEDFE0B53EC102B9DED080B00
:1052B00051EC100BFBF799F841EC1B0B9FEDFA0B2F
:1052C00051EC1A0B53EC102BFBF78FF841EC1A0B37
:1052D0009FEDF70B53EC102B9DED080B51EC100BD1
:1052E000FBF783F853EC1A2BFBF779F841EC1A0B18
:1052F00051EC1B0B53EC1A2BFAF7D0FF0690CDE9BB
:1053000006519DED060B53EC1B2B51EC100BFBF7DC
:1053100066F853EC1A2BFBF765F841EC100B00F024
:10532000A1B90020B6F5801F0EDA9FEDE30B53EC18
:10533000102B9DED0E0B51EC100BFBF756F8CDE941
:105340000E016FF034000E4600EB2650A0F2FF373E
:10535000C6F31300DA4940F07F6646F040568842B3
:10536000D8BF002408DDD7498142C8BF012403DC2F
:105370000024A6F580167F1CD348784400EBC400B7
:105380000F9690ED00CB9DED0E0B53EC1C2B51ECCA
:10539000100BFBF724F89DED0E0B41EC1B0B53ECAF
:1053A0001C2B51EC100BFAF779FF41EC100B51EC70
:1053B000190B53EC102BFBF78AF841EC1D0B51EC49
:1053C0001B0B53EC1D2BFBF710F841EC1A0BBF48DD
:1053D0008DED10AB7844109590ED000B4FF0005020
:1053E00040EA660000EB84408DED080B00F50020DC
:1053F00009909DED080B53EC1C2B51EC100BFAF7A8
:10540000EEFF9DED0E1B53EC112BFAF7EBFF41EC79
:10541000100B53EC102B9DED100B51EC100BFAF709
:10542000E4FF9DED080B41EC1C0B53EC102B9DEDA4
:10543000100B51EC100BFAF7D8FF53EC1B2BFAF7BB
:10544000D1FF53EC1C2BFAF7CAFF53EC1D2BFAF7D4
:10545000CCFF41EC1C0B53EC1A2B51EC1A0BFAF756
:10546000C4FF41EC1B0B9A480621B0EE4B0AF0EE4C
:105470006B0A784400F0E0FAB0EE401AF0EE601AE1
:10548000B0EE41DAF0EE61DA53EC1B2B51EC1B0B62
:10549000FAF7ABFF53EC1D2BFAF7A7FF9DED100BAE
:1054A00041EC1B0B53EC1A2B51EC100BFAF7F6FEE8
:1054B00053EC1C2BFAF799FF53EC1B2BFAF7EEFE7B
:1054C0009DED100B41EC1B0B53EC102B51EC100B12
:1054D000FAF78BFF41EC1D0B9FED7FEB53EC1E2B7E
:1054E000FAF7DCFE53EC1B2BFAF7D8FE0890CDE957
:1054F00008519DED080B53EC1E2B51EC100BFAF7E5
:105500006EFF53EC1D2BFAF76AFF53EC1B2BFAF7D7
:1055100069FF9DED080B41EC1D0B53EC102B9DED2D
:10552000100B51EC100BFAF760FF41EC1B0B53EC26
:105530001A2B51EC1D0BFAF758FF9DED080B41ECAF
:105540001A0B53EC102B51EC1C0BFAF74EFF53ECDB
:105550001A2BFAF7A3FE41EC1A0B51EC1B0B53EC80
:105560001A2BFAF79BFE0C90CDE90C519DED0C0B1C
:1055700053EC1B2B51EC100BFAF731FF53EC1A2BA9
:10558000FAF730FF41EC1B0B9FED550B53EC102B42
:105590009DED0C0B51EC100BFAF727FF41EC1A0BA9
:1055A0009FED510B51EC1B0B53EC102BFAF71DFF29
:1055B00041EC1B0B9FED4E0B53EC102B9DED0C0B98
:1055C00051EC100BFAF711FF53EC1B2BFAF766FEA8
:1055D00041EC100B4848784400EBC40090ED001BF0
:1055E00051EC100B53EC112BFAF758FE41EC1B0B4E
:1055F0003846FAF7DBFFCDE9080153EC1B2B51ECE1
:105600001A0BFAF74BFE41EC100B3C48784400EBC8
:10561000C40090ED00CB51EC100B53EC1C2BFAF7AF
:105620003DFE9DED081B53EC112BFAF737FE06905B
:10563000CDE906519DED080B53EC102B9DED060BAB
:1056400051EC100BFAF7CBFE53EC1C2BFAF7C7FE0C
:1056500053EC1A2BFAF7C3FE53EC1B2BFAF7C2FEDE
:1056600041EC100B9DED261B53EC102B8DED001B18
:1056700000959DED260B51EC100BFAF7B6FE9DED53
:10568000000B41EC1A0B53EC102B9DED260B51EC4B
:10569000100BFAF7A4FE9DED061B53EC112B2FE027
:1056A000000000604715F73FFE822B654715F73F66
:1056B00044DF5DF80BAE543E0000000000004043A4
:1056C0008E9803007AB60B000A21000038210000F2
:1056D0004220000000000000000000000000084020
:1056E000000000E009C7EE3FFD033ADC09C7EE3FCA
:1056F000F5015B14E02F3EBECE1E0000881E0000A8
:10570000FAF773FE53EC1A2BFAF7C8FD9DED060B62
:1057100041EC1A0B53EC102B9DED000B51EC100BD0
:10572000FAF763FECDE90C019DED0C0B51EC1A0B61
:1057300053EC102BFAF7B2FDCDE902010C46AA4951
:105740008C422FDB611A084318D19DED0C0B53ECF2
:10575000102B9DED020B51EC100BFAF740FE41ECC3
:105760001B0B9FEDA30B51EC1A0B53EC102BFAF70C
:1057700095FD53EC1B2BFBF759F82DD2022000F0BE
:105780003BFA00F009FA10EE901A18EE900A8DED2F
:10579000020B8DED008B61F31E0003909DED020B5B
:1057A000FFF7BEBB944A24F00041914214D39349C1
:1057B000214408437FF4EFAC9DED0C0B53EC102B10
:1057C0009DED020B51EC100BFAF709FE53EC1A2B6E
:1057D000FBF72CF87FF6DFAC24F000408849894ABB
:1057E000002601EB205182422BDA481C4FF4801135
:1057F00021FA00F02044844AC0F30A517A44A1F20D
:10580000FF3192ED000B814A8DED080BCA4020EA72
:105810000202C0F3130040F48010C1F1140120FA19
:1058200001F60992002CB8BF76429DED080B53ECAF
:10583000102B9DED0C0B51EC100BFAF7D0FDCDE9C0
:105840000C019DED0C0B51EC1A0B53EC102BFAF7DD
:1058500025FD9FED6F0B0890CDE9085153EC102BFF
:105860009DED080B51EC100BFAF7BFFD41EC1B0B43
:105870009FED690B53EC102B9DED080B51EC100BB9
:10588000FAF7B3FD9DED0C0B41EC1C0B53EC102B08
:105890009DED080B51EC100BFAF7A1FD53EC1A2B00
:1058A000FAF7A0FD9FED5E1B53EC112BFAF79DFD5F
:1058B00053EC1C2BFAF7F2FC41EC1A0B51EC1B0BCE
:1058C00053EC1A2BFAF7EAFCCDE902019DED020B2D
:1058D00053EC1B2B51EC100BFAF781FD53EC1A2BF8
:1058E000FAF780FD9DED020B41EC1A0B53EC102BE7
:1058F00051EC100BFAF779FDCDE908014A489DED0E
:10590000080B0521784400F097F89DED081B51EC39
:10591000100B53EC112BFAF768FD9DED021B53ECB5
:10592000112BFAF75FFDCDE906019DED020B53EC5B
:105930001A2B51EC100BFAF758FD53EC1A2BFAF70F
:10594000ADFC9FED3B0B41EC1A0B53EC102B9DED86
:10595000060B51EC100BFAF742FD9DED060B41ECE6
:105960001B0B53EC102B9DED020B51EC100BFAF7B7
:105970003CFD53EC1B2BFAF7AAFD53EC1A2BFAF75C
:105980002EFD9DED021B53EC112BFAF728FD53EC75
:10599000192BFAF727FDCDE9020101EB065001159D
:1059A0000029C8BF039015DC9DED020B324651EC77
:1059B000100BFAF723FFFFF7EFF9042808BF00F0F8
:1059C000FBF832469DED020B51EC100BFAF716FF77
:1059D000CDE902019DED020B51EC180B53EC102B9D
:1059E000FAF703FDFFF73ABB00009040000000000B
:1059F000FE822B654715973C00CC904000346F3FEA
:105A000001FCFFFF0000E03F101D0000FFFF0F0042
:105A100000000000432EE63F396CA80C615C20BEFC
:105A2000EF39FAFE422EE63FE01B000000000000C6
:105A3000000000000000004070B504462DED028B10
:105A40004D1E00EBC500B0EE408AF0EE608A90ED8E
:105A5000000B35F0060017D053EC182B51EC100B4F
:105A6000FAF7C3FC41EC100B6D1E04EBC50090ED82
:105A7000001B51EC100B53EC112BFAF70FFC41EC0F
:105A8000100B35F00600E7D1022D36D0042D1CD0C6
:105A9000062D1CBFBDEC028B70BD53EC182B51ECD6
:105AA000100BFAF7A2FC94ED0A1B53EC112BFAF73A
:105AB000F5FB53EC182BFAF798FC94ED081B53EC0C
:105AC000112BFAF7EBFB41EC100B53EC182B51ECBC
:105AD000100BFAF78AFC94ED061B53EC112BFAF726
